:020000040800F2
:10000000000C0020511700083508000837080008C8
:1000100000000000000000000000000000000000E0
:100020000000000000000000000000003908000887
:1000300000000000000000003B0800083D08000828
:10004000000000000000000000000000A1170008F0
:10005000A1170008A1170008A1170008A1170008A0
:100060000000000000000000000000000000000090
:10007000A1170008A1170008A11700080000000040
:1000800000000000A117000800000000A1170008F0
:10009000000000000000000000000000A1170008A0
:1000A00000000000A117000800000000A1170008D0
:1000B0000000000000000000000000000000000040
:1000C000002243088B4274D303098B425FD3030A97
:1000D0008B4244D3030B8B4228D3030C8B420DD3AA
:1000E000FF22090212BA030C8B4202D31212090238
:1000F00065D0030B8B4219D300E0090AC30B8B4276
:1001000001D3CB03C01A5241830B8B4201D38B0323
:10011000C01A5241430B8B4201D34B03C01A5241C8
:10012000030B8B4201D30B03C01A5241C30A8B420B
:1001300001D3CB02C01A5241830A8B4201D38B02F6
:10014000C01A5241430A8B4201D34B02C01A52419A
:10015000030A8B4201D30B02C01A5241CDD2C3090C
:100160008B4201D3CB01C01A524183098B4201D388
:100170008B01C01A524143098B4201D34B01C01A73
:10018000524103098B4201D30B01C01A5241C308EB
:100190008B4201D3CB00C01A524183088B4201D35A
:1001A0008B00C01A524143088B4201D34B00C01A46
:1001B0005241411A00D20146524110467047FFE7B2
:1001C00001B5002000F0F0F802BDC0460029F7D0CC
:1001D00076E7704703460B437FD4002243088B42E7
:1001E00074D303098B425FD3030A8B4244D3030BBE
:1001F0008B4228D3030C8B420DD3FF22090212BA83
:10020000030C8B4202D31212090265D0030B8B42FE
:1002100019D300E0090AC30B8B4201D3CB03C01AE8
:100220005241830B8B4201D38B03C01A5241430BC3
:100230008B4201D34B03C01A5241030B8B4201D3B3
:100240000B03C01A5241C30A8B4201D3CB02C01A1E
:100250005241830A8B4201D38B02C01A5241430A96
:100260008B4201D34B02C01A5241030A8B4201D385
:100270000B02C01A5241CDD2C3098B4201D3CB012C
:10028000C01A524183098B4201D38B01C01A5241DB
:1002900043098B4201D34B01C01A524103098B42DF
:1002A00001D30B01C01A5241C3088B4201D3CB00CA
:1002B000C01A524183088B4201D38B00C01A5241AD
:1002C00043088B4201D34B00C01A5241411A00D25D
:1002D00001465241104670475DE0CA0F00D04942C6
:1002E000031000D34042534000229C4603098B4236
:1002F0002DD3030A8B4212D3FC22890112BA030ABE
:100300008B420CD3890192118B4208D3890192113F
:100310008B4204D389013AD0921100E08909C309C4
:100320008B4201D3CB01C01A524183098B4201D3C6
:100330008B01C01A524143098B4201D34B01C01AB1
:10034000524103098B4201D30B01C01A5241C30829
:100350008B4201D3CB00C01A524183088B4201D398
:100360008B00C01A5241D9D243088B4201D34B00B3
:10037000C01A5241411A00D20146634652415B10F5
:10038000104601D34042002B00D5494270476346D6
:100390005B1000D3404201B5002000F005F802BD1B
:1003A0000029F8D016E770477047C0460448054B4F
:1003B00010B5834203D0044B002B00D0984710BDEA
:1003C000080000200800002000000000064807493F
:1003D000091A8B10C90FC91810B5491003D0044B66
:1003E000002B00D0984710BD080000200800002016
:1003F0000000000010B5074C2378002B09D1FFF74F
:10040000D5FF054B002B02D0044800E000BF0123BC
:10041000237010BD08000020000000001018000824
:10042000054B10B5002B03D00449054800E000BF80
:10043000FFF7CCFF10BDC046000000000C000020FC
:100440001018000870B582B01F4B596B0122114380
:100450005963596B0A400092009A596B022211436A
:1004600059635B6B13400193019BA023DB05196863
:100470000C25A943196018680421084318609A6183
:100480001A683024A2431A601A68102002431A60C6
:1004900099621A68C026B2431A60DA68B243DA6019
:1004A000DA68803E3243DA60084B1A68AA431A6061
:1004B0001A68A2431A601A680A431A601A6802434B
:1004C0001A6002B070BDC046001002400004005027
:1004D000074A084B53600848036A1B021B0AC021E5
:1004E00009060B43036200239360073313607047D0
:1004F00010E000E07F38010000ED00E030B587B08B
:1005000001AC200000F09AFC019D280000F0FAFFE9
:10051000280001F0BBF82389E288A188280000F0B8
:10052000D9FE00F0A1FC07B030BD10B500F08AFF85
:10053000002800D110BD00F097FFFBE710B500F0D8
:100540008DFF002804D0A023DB0504229A6110BD92
:10055000A023DB0504229A62F9E710B500F09AFFA8
:10056000002804D0A023DB0502229A6210BDA0233C
:10057000DB0502229A61F9E710B582B0A023DB0502
:100580001A69082313405C425C41E4B2002B0AD193
:10059000084B1B78002B03D0064B1C7002B010BD1B
:1005A00000F038FFF8E7034B1B78002BF4D000F085
:1005B00041FFF1E72400002010B586B001AC142201
:1005C0000021200001F0EDF814232380113B63800B
:1005D000FA23DB002381FA231B016381FA235B00EA
:1005E000A3819623DB002382C83B6382200000F0B6
:1005F000E9FB06B010BD000070B590B06C46242237
:100600000021684601F0CDF8164B0093164B23826B
:10061000164B0593164B06939623DB00A383C83B2A
:10062000E3833C232022A3540132A3541A3B1A3AF9
:10063000E2540133063AE254684600F017FE09A876
:100640000C4C0300220062CA62C322CA22C300F01B
:100650003DFF0EA81434030006CC06C300F0F6FFDD
:1006600010B070BD8006010038180000F8240100A9
:10067000102700002818000810B500F075FB104B7B
:100680001B78042B0DD000F055FB00280CD00D4B2F
:1006900001221A700A4B03321A700B4B00221A60A7
:1006A00010BD00F08BFAEEE7064B1B78002BF7D05D
:1006B000044A00231370024A1370034A1360EFE7E1
:1006C00030000020310000202C00002010B500F088
:1006D000B9FE0A2803D1134B03221A7010BD00F093
:1006E00029FB002803D00F4B04221A70F6E700F014
:1006F000BBFE002812D00C4A136801331360092B8B
:10070000ECD9130000221A60064B1B78002B03D192
:100710000232044B1A70E1E70022FAE7014B002293
:100720001A70DBE7300000202C00002010B5FFF726
:1007300089FEFFF7CDFEFFF73FFF00F00BFB00F057
:1007400021FA00F030F9FFF757FF62B6D2204001DE
:1007500000F08CF930BFFDE710B586B001A800F0BD
:100760006DFB00F0D7FF0400174B1A78042A0AD853
:100770009300164AD3589F4601980A21FFF7A0FC20
:1007800080B200F073F906B010BD01AB9888FA2171
:100790008900FFF795FC80B200F034F9F3E700F030
:1007A000BFFF002803D0200000F02CF9EBE7200069
:1007B00000F028F9E7E700F04BFE00F023F9E2E74C
:1007C00000F042FADFE7C04630000020441800087D
:1007D00010B5154A13680A331360FFF74DFF134A2B
:1007E00013780133DBB21370092B11D8104A138828
:1007F00001339BB21380632B10D8FFF7ADFFFFF7D7
:1008000094FEFFF79BFEFFF7A8FEFFF7B5FE10BDB5
:10081000130000221A70FFF771FEE7E713000022B1
:100820001A80FFF753FFE8E734000020280000207B
:10083000260000207047FEE77047704710B500F0B3
:1008400075FFFFF7C5FF10BD82B0054B4343019311
:10085000C046019B5A1E0192002BF9D102B070478D
:10086000B80B000010B50E494B681B0C1B040D4A59
:1008700012681204120C13434B604B680A4A13406F
:100880000A4A126812040A48024013434B60094B9B
:10089000802212059A60C820FFF7D6FF10BDC0461F
:1008A000001002400001FF1FFFFF00FE4401FF1F78
:1008B0000000FF0100ED00E082B00023019302E0A0
:1008C000019B01330193019B132BF9DD02B07047AB
:1008D00010B501220421024800F034FF10BDC046CB
:1008E0000004005010B501220221024800F02AFF46
:1008F00010BDC0460004005010B50022022102487D
:1009000000F020FF10BDC0460004005010B50022CA
:100910000421024800F016FF10BDC046000400503C
:1009200010B5FFF7DFFFFFF7D3FFFFF7C5FFFFF7B6
:10093000E3FFFFF7C1FFFFF7E9FF10BD70B505004A
:1009400000240AE0FFF7D8FFFFF7B6FFFFF7C0FF6C
:10095000FFF7B2FF6D080134E4B2072C06D8FFF7A9
:10096000D5FFEB07EED5FFF7BDFFEDE7FFF7CEFFB5
:10097000FFF7B8FFFFF7A0FFFFF7AAFFFFF79CFF05
:10098000FFF7C4FF70BD10B5FFF7C0FFFFF794FF7E
:10099000FFF7B2FFFFF790FFFFF79AFFFFF78CFF1B
:1009A000FFF7A0FF10BD10B5FFF792FFFFF79AFF0A
:1009B00010BD000070B50500FFF7B2FF4020FFF743
:1009C000BDFFFFF7E0FFFFF7ABFFC020FFF7B6FF6B
:1009D000002404E0285DFFF7B1FF0134E4B2032CEA
:1009E000F8D9FFF7D0FFFFF79BFF054B1B78782066
:1009F00040421843C0B2FFF7A1FFFFF7C4FF70BD2C
:100A00000000002070B582B00400FA218900FFF7D1
:100A100057FB80B20A21FFF7D9FB89B2124E735CF3
:100A200001AD2B7064212000FFF74AFB80B20A2140
:100A3000FFF7CCFB89B2735C6B700A212000FFF7D3
:100A40003FFB80B20A21FFF7C1FB89B2735CAB7038
:100A50000A212000FFF7BAFB89B2735CEB70280013
:100A6000FFF7A8FF02B070BD58180008F0B583B0BA
:100A70000400FA218900FFF723FBC7B2642120009C
:100A8000FFF71EFB80B20A21FFF7A0FBCEB20A21BE
:100A90002000FFF715FB80B20A21FFF797FBCDB2CC
:100AA0000A212000FFF792FBCAB2084BD95D01A8CA
:100AB00001709C5D8021494221434170595D8170E4
:100AC0009B5CC370FFF776FF03B0F0BD58180008B9
:100AD000F0B583B00400632819D801AD00262E704C
:100AE0000A21FFF7EDFA80B2104F3A5C80235B4297
:100AF00013436B700A212000FFF768FB89B27B5C0F
:100B0000AB70EE7001A8FFF755FF03B0F0BD01AD6B
:100B100006232B70B9336B700A21FFF757FB89B29C
:100B2000024B5B5CAB700023EB70EBE758180008DE
:100B3000830018184000704770B50E4B1A780E4BA2
:100B40005200D05AFFF7F4FF04000C4B0C4A127805
:100B50005200D35A64255D43ADB200F033FC280047
:100B600000F04AFC200000F001FD200000F0C2FD72
:100B700070BDC0460100002070180008641800080D
:100B80003D000020074A00231370074A042111701A
:100B9000064A1370064A1370064A1380064B002259
:100BA0001A7070473E000020010000203D00002028
:100BB0003C0000203A0000203800002010B51B4BFC
:100BC0001B78002B11D01A4A138801339BB2138073
:100BD000C8229200934208D308D0FA22920093428E
:100BE0000FD09622D200934216D210BD114B012293
:100BF0001A70114B1A78114B5200D05AFFF736FF7A
:100C0000F3E70C4B02221A700D4B1A780D4B520071
:100C1000D05AFFF75DFFE8E7FFF78EFF034A002396
:100C20001370044A1370024A1380DEE73C00002070
:100C30003A00002038000020010000207018000851
:100C40003D0000206418000810B50A4B1B78002BEB
:100C500007D1094B1A78094B5200D05AFFF706FF0B
:100C600010BD074B1A78074B5200D05AFFF730FFE0
:100C7000F6E7C0463E000020010000207018000882
:100C80003D0000206418000810B5134B1B78002BA2
:100C900015D1124B01221A70114B00221A80114BF0
:100CA0001B78002B0CD1104A13780133DBB2137080
:100CB0000A2B02D9130000221A70FFF7C5FF10BDDE
:100CC0000A4A13780133DBB21370042BF5D91300F1
:100CD00000221A70F1E7C046380000203C000020D6
:100CE0003A0000203E000020010000203D000020CE
:100CF00010B50C4B1B78002B0ED10B4B01221A7038
:100D00000A4B00221A800A4B1B78002B05D1084B96
:100D100001321A70FFF798FF10BD054B00221A70C0
:100D2000F8E7C046380000203C0000203A000020D0
:100D30003E000020014B18787047C0463C00002060
:100D4000034B1B690820184043425841C0B270470A
:100D500000040050024B00221A80024B1A707047A8
:100D6000400000203F00002010B5FFF7E9FF0028F9
:100D700014D0124B1B88C72B02D8104A01331380A2
:100D80000E4B1B88C72B14D90D4B1B78002B10D191
:100D90000B4B01221A70FFF7ABFF0AE0074B1B88D1
:100DA000013B9BB2C62B05D9044B00221A80044B91
:100DB0001A7010BDFFF768FFF6E7C046400000203C
:100DC0003F00002010B50100134B1422180000F062
:100DD00015FD124C14220021200000F0E2FC104806
:100DE0000622002100F0DDFC0E480622002100F062
:100DF000D8FC0D480622002100F0D3FC0B48062247
:100E0000002100F0CEFC0A4B00221A70094B1A7028
:100E1000094B236010BDC04678000020640000200C
:100E20005C000020540000204C0000204400002002
:100E300042000020620000208006010030B5074B10
:100E40001B78002B02D1064B064A1A60044B0200A5
:100E500032CB32C212CB12C230BDC046620000207B
:100E600064000020800601007047E6207047000003
:100E7000F8B543011B1A9B001818C000144B1968E1
:100E8000FFF71EF987B20023132B19D8114A9C00D3
:100E900011194D880133990056187688A45A8A5A38
:100EA000AF42F1D3B742EFD203041B0C5B1B101B04
:100EB0005843711BFFF78EF980B20019C0B204E0ED
:100EC000FA239B009F4201D20020F8BD6420FCE77A
:100ED000C0000020B418000870B504000D001A49C5
:100EE0004969814223D318498969814204D9174944
:100EF0003120095C00291CD11349C98B91421AD3B6
:100F000099421AD3104B1B8A962058436421FFF74D
:100F100061F9854213DD0C4B1B681801C01A4000B3
:100F20006421FFF7CDF8A0420BD8002000E0042098
:100F300070BD0520FCE70320FAE70320F8E7002056
:100F4000F6E70120F4E7C046C00000208C00002036
:100F5000084B5B69002B06D1064A0021D1730120A2
:100F6000107431301154632B03D9024B0122DA7310
:100F70005A7070478C00002010B51F4B5B69002B26
:100F800006D11D4A0121D173002111743120115461
:100F90009622920093420FD3174B5B68642058430C
:100FA000164B1968FFF78CF8402806D9124B3122EE
:100FB000012199542C3A5A7010BD272809D90E4B9B
:100FC000312201219954013A053199542C3A5A7031
:100FD000F2E7132809D9084B312201219954013A2B
:100FE000063199542D3A5A70E6E7034B3022082116
:100FF0009954273A5A70DFE78C000020C000002087
:101000000B4B5B69002B05D1094B00221A85F53289
:10101000FF325A85064B01221A74DA735A68054B5F
:101020009B689A4202D3024B04225A707047C04612
:101030008C000020C00000200B4B5B69002B05D109
:10104000094B00221A85FA2292005A85064B01228A
:101050001A74DA735A68054BDB689A4202D3024B62
:1010600005225A707047C0468C000020C000002046
:10107000114B5B69002B07D10F4B00221A850F49DA
:10108000098A59855A621A620B4B01221A74DA7363
:101090001A8D5B8D9A4206D2033292B206490A85B6
:1010A000934200D20B85044A128D934202D8024B20
:1010B00006225A707047C0468C000020C0000020F5
:1010C000084B01221A74DA73074A118A1985596884
:1010D0001368994204D3034B0022DA6107325A7035
:1010E0007047C0468C000020C000002010B5184B8F
:1010F00001221A74DA7330329B5C002B27D0144B18
:101100005C68144B1B689C420BD3114A1189114A2D
:10111000528A914205D80E4A30210A20505428396B
:1011200051705800C0184301C0186421FEF7C8FF71
:1011300084420CD3064AD3690133D361064A9342F1
:1011400005D9034B302209219954263A5A7010BD13
:101150008C000020C00000209F8C0000054B5B69C4
:10116000002B06D1034B0022DA731A7432320121AC
:10117000995470478C000020054B5B69002B05D10A
:10118000034B0022DA731A7431215A547047C04657
:101190008C000020054B5B69002B05D1034B00221E
:1011A000DA731A7431215A547047C0468C000020FB
:1011B00010B50B1C814200D2031C9BB2E1229200AD
:1011C000934212D2C8229200934215D30D4A9446FC
:1011D0006344DBB20C4A128A6420C01A5043642173
:1011E000FEF7F8FF094B588505E0084B3022032134
:1011F0009954263A5A7010BD034B1A8A034B5A85EC
:10120000F9E7C046E0FCFFFFC00000208C00002092
:1012100010B5FFF72AFE8C235B00984216D2872375
:101220005B00984206D8104B30229B5C042B12D0F6
:10123000952814D99F280DD90B4B31229B5C002B8C
:1012400008D1094B013A0021995403E0064B3022A2
:101250000421995410BD044B00219954E8E7024B36
:10126000302205219954F5E78C000020F8B50100E3
:10127000164C2422200000F0C1FA154D3422002122
:10128000280000F08EFA2668B00180196421FEF76C
:1012900017FF0700FFF7ECFD2C23E854238A980082
:1012A000C018C0006421FEF795FF6082B500A81940
:1012B00080006421FEF704FF6060AD19E80064213E
:1012C000FEF7FEFEA060E760F8BDC046C00000204B
:1012D0008C000020F8B506000F0014001D00364BEE
:1012E000586019815A819D81FFF792FF29002000E3
:1012F000FFF75EFF2B00220039003000FFF7ECFD06
:10130000002804D02C4B30229854263A5A702A4B8D
:1013100031229B5C002B0AD0274B1A6A274B9A423A
:1013200005D9254B302209219954263A5A70224B6F
:101330001B780A2B05D89B00214AD3589F46FFF7FC
:1013400007FE1D4B5A781B789A4230D01A4B1A7000
:1013500000225A61184B9A6901329A611A6A013265
:101360001A625A6A01325A622D215A5C01325A5469
:10137000F8BDFFF701FEE4E7FFF7FEFEE1E7FFF748
:101380003FFEDEE7FFF758FEDBE7FFF771FED8E729
:10139000FFF796FED5E7FFF7A9FED2E7FFF7DEFEDF
:1013A000CFE7FFF7E9FECCE7FFF7F4FEC9E7024A13
:1013B000536901335361CDE78C00002060D80300EE
:1013C0008818000870B504000A4E3060850028189F
:1013D00080006421FEF774FE70602819C00064214B
:1013E000FEF76EFEB060A00100196421FEF768FEF2
:1013F000F06070BDC000002010B5054C2082830055
:101400001818C0006421FEF7E5FE608210BDC046DA
:10141000C0000020064B1B78002B08D0044B002294
:101420001A705A705A6132215A5402395A5470470C
:101430008C000020024B0022DA731A747047C046F9
:101440008C000020014B18787047C0468C000020AB
:10145000014B3022985C70478C000020014B187CB7
:101460007047C0468C000020094B31229B5C002B4A
:1014700009D0074B1B78092B07D00A2B01D001207C
:1014800002E0002000E0002070470020FCE7C0469A
:101490008C000020014BD87B7047C0468C00002098
:1014A000094BDB68834209D9074B9B68834207D904
:1014B000054B5B68834205D8012070470320FCE799
:1014C0000220FAE70020F8E7F800002010B5011E1E
:1014D00013D00A4C1422200000F090F9084B00228F
:1014E0001A705A709A705A609A601A731A61637C03
:1014F000002B02D1014B05325A7410BDF8000020B8
:10150000E400002010B5174C6060FFF7C9FF217898
:10151000814212D0144A137C0133DBB21374527C23
:1015200093420DD3617020700122A2700022A2604C
:10153000227322610C4B1A7402E00B4B00221A74C6
:10154000084A93680133936096229200934208D32D
:10155000044B1B7B002B04D1024B01221A73002287
:101560001A6110BDE4000020F800002070B50400EE
:101570000D4E30608500281880006421FEF7A0FD24
:1015800070602819C0006421FEF79AFDB060A001C8
:1015900000196421FEF794FDF060044B00221A73D9
:1015A0001A619A6070BDC046F8000020E400002077
:1015B00070B505000C0004A90E8886420ED996422B
:1015C0000ED2121A91B21B1B98B2761BB6B27043A0
:1015D000FEF700FE80B22018C0B270BD2000FCE70C
:1015E0001800FAE770B582B043011B1A9B00181867
:1015F000C000FEF765FD0500124B98421CD95F3311
:10160000FF3398421BD20022132A13DC0E4B9100A9
:10161000C85A01329400E65A591889781B199B78E8
:10162000A842F1D8AE42EFD3ADB200953200FFF739
:10163000BFFF02E0002000E0002002B070BD642087
:10164000FBE7C0468A0200000819000810B5011E19
:1016500016D00C4C0822200000F0D0F82379002B83
:1016600002D1084B02221A71074B00211970002287
:10167000598099809A7119819A72DA721A735A7321
:1016800010BDC0461C0100200C01002010B5174BF6
:101690001968FFF7A7FF164A127B824207D2144946
:1016A000497B814204D0124B587300221A8110BD2D
:1016B0000F490B8901339BB20B81962189008B4224
:1016C000F5D3831ADBB2052B0DD9094B05321A73FA
:1016D000074B1A7B1B789A4201D9054B1A70044BB1
:1016E00000221A81E3E7024B1873F1E71C01002086
:1016F0000C010020054B1860054B00229A711A81DD
:101700000132DA7200221A735A7370471C010020EA
:101710000C010020014B18787047C0460C010020D6
:10172000014B98797047C0460C010020034A1368AA
:10173000034909685B1813607047C0462401002004
:1017400004000020002A01D0816170478162FCE71B
:101750000D488546FFF786F80C480D490D4A0023D1
:1017600002E0D458C4500433C4188C42F9D30A4A56
:101770000A4C002301E013600432A242FBD300F0C4
:1017800019F8FEF7D3FFFEE7000C00200000002050
:10179000080000206419000808000020280100202B
:1017A000FEE703008218934200D17047197001339D
:1017B000F9E7000070B500260C4C0D4D641BA41019
:1017C000A64209D1002600F023F80A4C0A4D641BFA
:1017D000A410A64205D170BDB300EB58984701365E
:1017E000EEE7B300EB5898470136F2E75C190008C2
:1017F0005C190008601900085C190008002310B586
:101800009A4200D110BDCC5CC4540133F8E700000B
:10181000F8B5C046F8BC08BC9E467047F8B5C0464F
:08182000F8BC08BC9E467047AD
:10182800800601008034000000690000A0AA0000C2
:10183800000500008006010002000000780700088B
:101848008A0700089E070008B6070008C0070008B6
:101858003F065B4F666D7D077F6F00003E004800C6
:1018680052005C006600000054156315D016F81687
:101878004F1A171BE41B841CCB20D02038220000F1
:101888003E13000872130008781300087E1300083E
:10189800841300088A1300089013000896130008A0
:1018A8009C130008A2130008A813000800008A026D
:1018B800050023030A003A030F00510314006803CC
:1018C80019007F031E0084032300890328008E0368
:1018D8002D0093033200980337009D033C00A203B8
:1018E8004100A7034600AC034B00B1035000BC0302
:1018F8005500C7035A00D2035F00DD036400E80304
:101908008A020000230305003A030A0051030F006E
:10191800680314007F03190084031E008903230051
:101928008E03280093032D00980332009D0337008F
:10193800A2033C00A7034100AC034600B1034B00DF
:10194800BC035000C7035500D2035A00DD035F00F3
:04195800E80364003C
:04195C00210400085A
:04196000F503000883
:0819640007040000010000006F
:040000050800175187
:00000001FF
